{
  "_format": "hh-sol-artifact-1",
  "contractName": "VotingPlatform",
  "sourceName": "contracts/VotingPlatform.sol",
  "abi": [
    {
      "anonymous": false,
      "inputs": [
        {
          "indexed": true,
          "internalType": "uint256",
          "name": "pollId",
          "type": "uint256"
        },
        {
          "indexed": false,
          "internalType": "string",
          "name": "title",
          "type": "string"
        }
      ],
      "name": "PollCreated",
      "type": "event"
    },
    {
      "anonymous": false,
      "inputs": [
        {
          "indexed": true,
          "internalType": "uint256",
          "name": "pollId",
          "type": "uint256"
        },
        {
          "indexed": true,
          "internalType": "address",
          "name": "voter",
          "type": "address"
        },
        {
          "indexed": false,
          "internalType": "uint256",
          "name": "optionIndex",
          "type": "uint256"
        }
      ],
      "name": "Voted",
      "type": "event"
    },
    {
      "inputs": [
        {
          "internalType": "string",
          "name": "_title",
          "type": "string"
        },
        {
          "internalType": "string",
          "name": "_details",
          "type": "string"
        },
        {
          "internalType": "string[]",
          "name": "_options",
          "type": "string[]"
        }
      ],
      "name": "createPoll",
      "outputs": [
        {
          "internalType": "uint256",
          "name": "",
          "type": "uint256"
        }
      ],
      "stateMutability": "nonpayable",
      "type": "function"
    },
    {
      "inputs": [
        {
          "internalType": "uint256",
          "name": "_pollId",
          "type": "uint256"
        }
      ],
      "name": "getPoll",
      "outputs": [
        {
          "internalType": "string",
          "name": "title",
          "type": "string"
        },
        {
          "internalType": "string",
          "name": "details",
          "type": "string"
        },
        {
          "internalType": "string[]",
          "name": "options",
          "type": "string[]"
        },
        {
          "internalType": "uint256[]",
          "name": "votes",
          "type": "uint256[]"
        }
      ],
      "stateMutability": "view",
      "type": "function"
    },
    {
      "inputs": [],
      "name": "getPollSummaries",
      "outputs": [
        {
          "internalType": "uint256[]",
          "name": "ids",
          "type": "uint256[]"
        },
        {
          "internalType": "string[]",
          "name": "titles",
          "type": "string[]"
        }
      ],
      "stateMutability": "view",
      "type": "function"
    },
    {
      "inputs": [],
      "name": "pollCount",
      "outputs": [
        {
          "internalType": "uint256",
          "name": "",
          "type": "uint256"
        }
      ],
      "stateMutability": "view",
      "type": "function"
    },
    {
      "inputs": [
        {
          "internalType": "uint256",
          "name": "_pollId",
          "type": "uint256"
        },
        {
          "internalType": "uint256",
          "name": "_optionIndex",
          "type": "uint256"
        }
      ],
      "name": "vote",
      "outputs": [],
      "stateMutability": "nonpayable",
      "type": "function"
    }
  ],
  "bytecode": "0x6080604052348015600f57600080fd5b506116a78061001f6000396000f3fe608060405234801561001057600080fd5b50600436106100575760003560e01c80631a8cbcaa1461005c5780639207891d1461008f578063b384abef146100ad578063cfba7a09146100c9578063dfcaab88146100f9575b600080fd5b61007660048036038101906100719190610a9c565b610118565b6040516100869493929190610d23565b60405180910390f35b610097610486565b6040516100a49190610d93565b60405180910390f35b6100c760048036038101906100c29190610dae565b61048c565b005b6100e360048036038101906100de9190611009565b610703565b6040516100f09190610d93565b60405180910390f35b610101610896565b60405161010f9291906110b0565b60405180910390f35b60608060608060008511801561013057506000548511155b61016f576040517f08c379a000000000000000000000000000000000000000000000000000000000815260040161016690611133565b60405180910390fd5b600060016000878152602001908152602001600020905060008160020180549050905060008167ffffffffffffffff8111156101ae576101ad610df8565b5b6040519080825280602002602001820160405280156101e157816020015b60608152602001906001900390816101cc5790505b50905060008267ffffffffffffffff811115610200576101ff610df8565b5b60405190808252806020026020018201604052801561022e5781602001602082028036833780820191505090505b50905060005b838110156103505784600201818154811061025257610251611153565b5b906000526020600020018054610267906111b1565b80601f0160208091040260200160405190810160405280929190818152602001828054610293906111b1565b80156102e05780601f106102b5576101008083540402835291602001916102e0565b820191906000526020600020905b8154815290600101906020018083116102c357829003601f168201915b50505050508382815181106102f8576102f7611153565b5b602002602001018190525084600301818154811061031957610318611153565b5b906000526020600020015482828151811061033757610336611153565b5b6020026020010181815250508080600101915050610234565b5083600001846001018383838054610367906111b1565b80601f0160208091040260200160405190810160405280929190818152602001828054610393906111b1565b80156103e05780601f106103b5576101008083540402835291602001916103e0565b820191906000526020600020905b8154815290600101906020018083116103c357829003601f168201915b505050505093508280546103f3906111b1565b80601f016020809104026020016040519081016040528092919081815260200182805461041f906111b1565b801561046c5780601f106104415761010080835404028352916020019161046c565b820191906000526020600020905b81548152906001019060200180831161044f57829003601f168201915b505050505092509750975097509750505050509193509193565b60005481565b60008211801561049e57506000548211155b6104dd576040517f08c379a00000000000000000000000000000000000000000000000000000000081526004016104d490611133565b60405180910390fd5b60006001600084815260200190815260200160002090508060050160009054906101000a900460ff16610545576040517f08c379a000000000000000000000000000000000000000000000000000000000815260040161053c90611133565b60405180910390fd5b8060020180549050821061058e576040517f08c379a00000000000000000000000000000000000000000000000000000000081526004016105859061122e565b60405180910390fd5b8060040160003373ffffffffffffffffffffffffffffffffffffffff1673ffffffffffffffffffffffffffffffffffffffff16815260200190815260200160002060009054906101000a900460ff161561061d576040517f08c379a00000000000000000000000000000000000000000000000000000000081526004016106149061129a565b60405180910390fd5b600181600301838154811061063557610634611153565b5b90600052602060002001600082825461064e91906112e9565b9250508190555060018160040160003373ffffffffffffffffffffffffffffffffffffffff1673ffffffffffffffffffffffffffffffffffffffff16815260200190815260200160002060006101000a81548160ff0219169083151502179055503373ffffffffffffffffffffffffffffffffffffffff16837f1abe610cf2bf87e57dcc1181fcf5ac0934e843d8344ab9eed6e86c799f62585e846040516106f69190610d93565b60405180910390a3505050565b600080825111610748576040517f08c379a000000000000000000000000000000000000000000000000000000000815260040161073f90611369565b60405180910390fd5b60008081548092919061075a90611389565b919050555060006001600080548152602001908152602001600020905084816000019081610788919061157d565b508381600101908161079a919061157d565b5060018160050160006101000a81548160ff02191690831515021790555060005b835181101561084e57816002018482815181106107db576107da611153565b5b6020026020010151908060018154018082558091505060019003906000526020600020016000909190919091509081610814919061157d565b50816003016000908060018154018082558091505060019003906000526020600020016000909190919091505580806001019150506107bb565b506000547f65d5ac2bf1bca69566bef1affdfca5bb37b9577fc0b3af4c7c4638225e67b39c86604051610881919061164f565b60405180910390a26000549150509392505050565b60608060005467ffffffffffffffff8111156108b5576108b4610df8565b5b6040519080825280602002602001820160405280156108e35781602001602082028036833780820191505090505b50915060005467ffffffffffffffff81111561090257610901610df8565b5b60405190808252806020026020018201604052801561093557816020015b60608152602001906001900390816109205790505b50905060005b600054811015610a4d5760006001600060018461095891906112e9565b8152602001908152602001600020905060018261097591906112e9565b84838151811061098857610987611153565b5b6020026020010181815250508060000180546109a3906111b1565b80601f01602080910402602001604051908101604052809291908181526020018280546109cf906111b1565b8015610a1c5780601f106109f157610100808354040283529160200191610a1c565b820191906000526020600020905b8154815290600101906020018083116109ff57829003601f168201915b5050505050838381518110610a3457610a33611153565b5b602002602001018190525050808060010191505061093b565b509091565b6000604051905090565b600080fd5b600080fd5b6000819050919050565b610a7981610a66565b8114610a8457600080fd5b50565b600081359050610a9681610a70565b92915050565b600060208284031215610ab257610ab1610a5c565b5b6000610ac084828501610a87565b91505092915050565b600081519050919050565b600082825260208201905092915050565b60005b83811015610b03578082015181840152602081019050610ae8565b60008484015250505050565b6000601f19601f8301169050919050565b6000610b2b82610ac9565b610b358185610ad4565b9350610b45818560208601610ae5565b610b4e81610b0f565b840191505092915050565b600081519050919050565b600082825260208201905092915050565b6000819050602082019050919050565b600082825260208201905092915050565b6000610ba182610ac9565b610bab8185610b85565b9350610bbb818560208601610ae5565b610bc481610b0f565b840191505092915050565b6000610bdb8383610b96565b905092915050565b6000602082019050919050565b6000610bfb82610b59565b610c058185610b64565b935083602082028501610c1785610b75565b8060005b85811015610c535784840389528151610c348582610bcf565b9450610c3f83610be3565b925060208a01995050600181019050610c1b565b50829750879550505050505092915050565b600081519050919050565b600082825260208201905092915050565b6000819050602082019050919050565b610c9a81610a66565b82525050565b6000610cac8383610c91565b60208301905092915050565b6000602082019050919050565b6000610cd082610c65565b610cda8185610c70565b9350610ce583610c81565b8060005b83811015610d16578151610cfd8882610ca0565b9750610d0883610cb8565b925050600181019050610ce9565b5085935050505092915050565b60006080820190508181036000830152610d3d8187610b20565b90508181036020830152610d518186610b20565b90508181036040830152610d658185610bf0565b90508181036060830152610d798184610cc5565b905095945050505050565b610d8d81610a66565b82525050565b6000602082019050610da86000830184610d84565b92915050565b60008060408385031215610dc557610dc4610a5c565b5b6000610dd385828601610a87565b9250506020610de485828601610a87565b9150509250929050565b600080fd5b600080fd5b7f4e487b7100000000000000000000000000000000000000000000000000000000600052604160045260246000fd5b610e3082610b0f565b810181811067ffffffffffffffff82111715610e4f57610e4e610df8565b5b80604052505050565b6000610e62610a52565b9050610e6e8282610e27565b919050565b600067ffffffffffffffff821115610e8e57610e8d610df8565b5b610e9782610b0f565b9050602081019050919050565b82818337600083830152505050565b6000610ec6610ec184610e73565b610e58565b905082815260208101848484011115610ee257610ee1610df3565b5b610eed848285610ea4565b509392505050565b600082601f830112610f0a57610f09610dee565b5b8135610f1a848260208601610eb3565b91505092915050565b600067ffffffffffffffff821115610f3e57610f3d610df8565b5b602082029050602081019050919050565b600080fd5b6000610f67610f6284610f23565b610e58565b90508083825260208201905060208402830185811115610f8a57610f89610f4f565b5b835b81811015610fd157803567ffffffffffffffff811115610faf57610fae610dee565b5b808601610fbc8982610ef5565b85526020850194505050602081019050610f8c565b5050509392505050565b600082601f830112610ff057610fef610dee565b5b8135611000848260208601610f54565b91505092915050565b60008060006060848603121561102257611021610a5c565b5b600084013567ffffffffffffffff8111156110405761103f610a61565b5b61104c86828701610ef5565b935050602084013567ffffffffffffffff81111561106d5761106c610a61565b5b61107986828701610ef5565b925050604084013567ffffffffffffffff81111561109a57611099610a61565b5b6110a686828701610fdb565b9150509250925092565b600060408201905081810360008301526110ca8185610cc5565b905081810360208301526110de8184610bf0565b90509392505050565b7f766f746520646f6573206e6f7420657869737400000000000000000000000000600082015250565b600061111d601383610ad4565b9150611128826110e7565b602082019050919050565b6000602082019050818103600083015261114c81611110565b9050919050565b7f4e487b7100000000000000000000000000000000000000000000000000000000600052603260045260246000fd5b7f4e487b7100000000000000000000000000000000000000000000000000000000600052602260045260246000fd5b600060028204905060018216806111c957607f821691505b6020821081036111dc576111db611182565b5b50919050565b7f63686f69636520646f6573206e6f742065786973740000000000000000000000600082015250565b6000611218601583610ad4565b9150611223826111e2565b602082019050919050565b600060208201905081810360008301526112478161120b565b9050919050565b7f616c726561647920766f74656400000000000000000000000000000000000000600082015250565b6000611284600d83610ad4565b915061128f8261124e565b602082019050919050565b600060208201905081810360008301526112b381611277565b9050919050565b7f4e487b7100000000000000000000000000000000000000000000000000000000600052601160045260246000fd5b60006112f482610a66565b91506112ff83610a66565b9250828201905080821115611317576113166112ba565b5b92915050565b7f6174206c65617374206f6e6520766f7465000000000000000000000000000000600082015250565b6000611353601183610ad4565b915061135e8261131d565b602082019050919050565b6000602082019050818103600083015261138281611346565b9050919050565b600061139482610a66565b91507fffffffffffffffffffffffffffffffffffffffffffffffffffffffffffffffff82036113c6576113c56112ba565b5b600182019050919050565b60008190508160005260206000209050919050565b60006020601f8301049050919050565b600082821b905092915050565b6000600883026114337fffffffffffffffffffffffffffffffffffffffffffffffffffffffffffffffff826113f6565b61143d86836113f6565b95508019841693508086168417925050509392505050565b6000819050919050565b600061147a61147561147084610a66565b611455565b610a66565b9050919050565b6000819050919050565b6114948361145f565b6114a86114a082611481565b848454611403565b825550505050565b600090565b6114bd6114b0565b6114c881848461148b565b505050565b5b818110156114ec576114e16000826114b5565b6001810190506114ce565b5050565b601f82111561153157611502816113d1565b61150b846113e6565b8101602085101561151a578190505b61152e611526856113e6565b8301826114cd565b50505b505050565b600082821c905092915050565b600061155460001984600802611536565b1980831691505092915050565b600061156d8383611543565b9150826002028217905092915050565b61158682610ac9565b67ffffffffffffffff81111561159f5761159e610df8565b5b6115a982546111b1565b6115b48282856114f0565b600060209050601f8311600181146115e757600084156115d5578287015190505b6115df8582611561565b865550611647565b601f1984166115f5866113d1565b60005b8281101561161d578489015182556001820191506020850194506020810190506115f8565b8683101561163a5784890151611636601f891682611543565b8355505b6001600288020188555050505b505050505050565b600060208201905081810360008301526116698184610b20565b90509291505056fea2646970667358221220d2ddbe1d9d2ff042d5b61069713b5a18469535346f554bbaddba56b3b1092e8364736f6c634300081c0033",
  "linkReferences": {},
  "deployedLinkReferences": {}
}